:020000040800F2
:100000006807002089010008510700089D060008C4
:1000100019070008D1020008831100080000000041
:10002000000000000000000000000000810900083E
:10003000D502000800000000E5070008C90A000812
:10004000A3010008A3010008A3010008A301000800
:10005000A3010008A3010008D9020008A3010008B9
:100060002903000879030008A3010008A301000880
:10007000A3010008A3010008A3010008A3010008D0
:10008000A3010008A3010008A3010008A3010008C0
:10009000A3010008A3010008A3010008A3010008B0
:1000A000A3010008A3010008A3010008A3010008A0
:1000B0002D0B0008A3010008A3010008A3010008FC
:1000C000A3010008A3010008A3010008A301000880
:1000D000A3010008610F0008A3010008A3010008A4
:1000E000A3010008A3010008A301000800F002F822
:1000F00000F03AF80AA090E8000C82448344AAF188
:100100000107DA4501D100F02FF8AFF2090EBAE885
:100110000F0013F0010F18BFFB1A43F0010318473B
:100120000013000020130000103A24BF78C878C1E3
:10013000FAD8520724BF30C830C144BF04680C60ED
:10014000704700000023002400250026103A28BF35
:1001500078C1FBD8520728BF30C148BF0B60704739
:100160001FB51FBD10B510BD00F06EF81146FFF7AA
:10017000F7FF01F0A3F800F0A0F803B4FFF7F2FFD7
:1001800003BC01F000F80000094880470948004717
:10019000FEE7FEE7FEE7FEE7FEE7FEE7FEE7FEE737
:1001A000FEE7FEE704480549054A064B7047000094
:1001B000CD0A0008ED000008680100206807002053
:1001C0006803002068030020704700000FB4044952
:1001D00010B503AA029800F009F810BC5DF814FBF2
:1001E000380000207047704770477047074B70B564
:1001F0000D467B4400F011F80446284600F020F834
:1002000010B14FF0FF3070BD204670BDAB10000044
:1002100001694A1C02610878704700B58FB0CDE9CA
:1002200001310021059105497944CDE903101146BA
:10023000684600F02EF80FB000BD0000E5FFFFFF9C
:10024000007B00F080007047754600F03DF8AE4638
:1002500005006946534620F00700854618B020B5D2
:10026000FFF7A0FFBDE820404FF000064FF0000769
:100270004FF000084FF0000B21F00701AC46ACE84E
:10028000C009ACE8C009ACE8C009ACE8C0098D46BB
:1002900070472DE9F04106460024D6E90170F56863
:1002A0008046304603E04146B847641C3046A847C4
:1002B0000028F8D12046BDE8F0810446AFF3008065
:1002C0002046FFF75AFF0000004870470801002051
:1002D00000BFFEE77047000010B50A2000F0BAFF2B
:1002E00001210E4800F0CDF9012812D10C48007808
:1002F000C0430B490870084600780A49086008485E
:10030000007820B14FF4FA7000F0E6F901E000F057
:10031000ADFB012000F0BAF810BD0000000801405C
:100320001D000020B401224210B50A2000F092FF07
:1003300004210E4800F0A5F9012812D10C480078DC
:10034000C0430B490870084600780A49086008480D
:10035000007820B14FF4FA7000F0D0FA01E000F01C
:1003600085FB042000F092F810BD00000008014059
:100370001E000020B401224210B50A2000F06AFFDE
:1003800008210E4800F07DF9012812D10C480078B0
:10039000C0430B490870084600780A4908600848BD
:1003A000007820B14FF4FA7000F0C8FA01E000F0D4
:1003B0005DFB082000F06AF810BD00000008014055
:1003C0001C000020B40122421FB50121052000F0CD
:1003D0001BFA0D20ADF80C0028208DF80F0003A9A2
:1003E000294800F0C3F800208DF8080008208DF897
:1003F000090001208DF80A000021084600F096F857
:100400000120019001A800F047F80221002000F02F
:100410008DF80420019001A800F03EF8032100208F
:1004200000F084F80820019001A800F035F80620BB
:100430008DF8000002208DF8010003208DF80200E5
:1004400001208DF80300684600F08AF908208DF835
:10045000000002208DF8010001208DF802008DF8C7
:100460000300684600F07CF909208DF800000220A6
:100470008DF8010000208DF8020001208DF80300A6
:10048000684600F06DF91FBD000801400149086091
:100490007047000014040140002123498279002A9A
:1004A0003AD00A46126803689A430B461A600A1D3E
:1004B000126803689A430B1D1A60027911440A6896
:1004C00003681A430A60184A0832126803689A439C
:1004D000154B08331A601A1D126803689A43124BB1
:1004E0000C331A604279102A0ED11A1F1268036861
:1004F0001A430D4B08331A601A1D126803681A4319
:10050000094B0C331A600DE00749427911440A681F
:1005100003681A430A6005E0027911440A68036817
:100520009A430A60704700000004014030B5002281
:100530008B071C0F0F2303FA04F20B4B8C1053F89C
:1005400024309343084C8D1044F8253023468C10FA
:1005500053F824308C07240F00FA04F42343024C90
:100560008D1044F8253030BD080001402DE9F041E0
:10057000024600250026002000230024002791F8D1
:1005800003C00CF00F0591F803C00CF0100CBCF187
:10059000000F03D091F802C04CEA050591F800C0A5
:1005A000BCF1000F31D0146800202BE04FF0010C9B
:1005B0000CFA00F3B1F800C00CEA03069E4220D109
:1005C00083004FF00F0C0CFA03F7BC4305FA03FC51
:1005D0004CEA040491F803C0BCF1280F06D14FF097
:1005E000010C0CFA00FCC2F814C00AE091F803C038
:1005F000BCF1480F05D14FF0010C0CFA00FCC2F819
:1006000010C0401C0828D1D31460B1F800C0BCF160
:10061000FF0F34DD546800202EE000F1080C4FF08D
:10062000010808FA0CF3B1F800C00CEA03069E4278
:1006300021D183004FF00F0C0CFA03F7BC4305FAED
:1006400003FC4CEA040491F803C0BCF1280F05D167
:1006500000F1080C08FA0CF8C2F8148091F803C0F5
:10066000BCF1480F07D100F1080C4FF0010808FA5F
:100670000CF8C2F81080401C0828CED35460BDE8A6
:10068000F0810246002093680B400BB1012000E08E
:1006900000207047416170470161704700BFFEE76D
:1006A00008B50121102000F0AFF84FF40050ADF86C
:1006B000000010208DF8030003208DF80200694629
:1006C0000448FFF753FF4FF400510248FFF7E4FFDF
:1006D00008BD00000010014010B50446B4F57A7F53
:1006E00001DD4FF47A744FF47A71084800F0E1FBB1
:1006F000002007490860C4F57A7081B2034800F011
:10070000DAFB00200349C1F8840110BD0004004059
:10071000808121420080214200BFFEE708B501210F
:10072000082000F071F80320ADF8000010208DF8CB
:10073000030003208DF8020069460448FFF716FF06
:1007400003210248FFF7A6FF08BD0000000C01408E
:10075000704710B54FF4A06000F03AF810BD0000EB
:1007600070B5002100230F22C47804B3154C24680F
:1007700004F4E064C4F5E064210AC1F10403CA4052
:10078000447804FA03F184781440214309010E4CA3
:100790000678A155047804F01F050124AC400578C3
:1007A0006D11AD0005F1E025C5F8004109E00478C0
:1007B00004F01F050124AC40044D0678761145F87D
:1007C000264070BD0CED00E000E400E080E100E0B8
:1007D00002490143024A1160704700000000FA0517
:1007E0000CED00E07047000029B1064AD2690243CF
:1007F000044BDA6104E0034AD2698243014BDA61B7
:10080000704700000010024029B1064A9269024375
:10081000044B9A6104E0034A92698243014B9A6156
:10082000704700000010024030B500210022002473
:1008300000232D4D6D6805F00C0121B1042905D070
:10084000082923D105E0294D056022E0274D0560E8
:100850001FE0254D6D6805F47012234D6D6805F499
:100860008034022505EB92421CB9214D55430560A9
:100870000BE01D4D6D6805F400351DB11C4D554351
:10088000056002E0194D5543056002E0174D056013
:1008900000BF00BF144D6D6805F0F0010909154D4A
:1008A0006B5C0568DD4045600F4D6D6805F4E061E7
:1008B000090A104D6B5C4568DD4085600A4D6D6826
:1008C00005F46051C90A0B4D6B5C4568DD40C5609D
:1008D000054D6D6805F44041890B074D6B5CC5689B
:1008E000B5FBF3F5056130BD0010024000127A003F
:1008F00000093D001F0000202F00002010B5044615
:10090000B4F57A7F01DD4FF47A74C4F57A7081B260
:10091000074800F0CEFA0020064908604FF47A71CB
:10092000034800F0C8FA00200349C1F8840110BD53
:1009300000040040808121420080214210B504461D
:10094000B4F57A7F01DD4FF47A74C4F57A7081B220
:10095000084800F0AEFA002007490860C4F57A7034
:1009600081B2044800F0A7FA00200449C1F88401CC
:1009700010BD00000004004080812142008021421F
:10098000704710B500F002F810BD00000CB5002053
:10099000019000903348006840F48030314908608D
:1009A00000BF3048006800F4003000900198401CFF
:1009B0000190009818B90198B0F5A06FF1D12948BD
:1009C000006800F4003010B10120009001E0002028
:1009D00000900098012843D12348006840F010009F
:1009E000214908600846006820F0030008600846B6
:1009F000006840F0020008601A48406819494860E1
:100A00000846406848600846406840F48060486096
:100A10000846406820F47C1048600846406840F46E
:100A2000E81048600846006840F08070086000BF29
:100A30000C48006800F000700028F9D009484068B0
:100A400020F00300074948600846406840F0020073
:100A5000486000BF0348406800F00C000828F9D146
:100A60000CBD0000001002400020024010B54FF401
:100A70007A71084800F01DFA0020074908604FF419
:100A80007A71044800F017FA00200449C1F8840183
:100A900010BD0000000400408081214200802142FE
:100AA000042808D14FF0E021096941F004014FF01A
:100AB000E022116107E04FF0E021096921F0040113
:100AC0004FF0E022116170477047000010B51348E5
:100AD000006840F00100114908600846406810496C
:100AE00008400E494860084600680E4908400B4916
:100AF00008600846006820F48020086008464068C6
:100B000020F4FE0048604FF41F008860FFF739FFB3
:100B10004FF000600449086010BD00000010024062
:100B20000000FFF8FFFFF6FE08ED00E010B5012120
:100B3000880700F0EFF8E8B10F480068401C0E4944
:100B40000860084600680D490968884203D1002002
:100B50000B4908600AE008480068B0F5FA6F05D351
:100B60000020054908600120054908600121880727
:100B700000F0B2F810BD00001400002018000020A2
:100B8000A481214230B585B005460C4601210820DC
:100B9000FFF73AFE4FF40070ADF8100010208DF80A
:100BA000130003208DF8120004A91A48FFF7DEFC99
:100BB0004FF400711748FFF76DFD01210846FFF75C
:100BC00013FEADF80850ADF804400020ADF80A005F
:100BD000ADF8060001A94FF0804000F06FF9012246
:100BE0001146900700F0A7F81C208DF800000020A7
:100BF0008DF8010003208DF8020001208DF803001C
:100C00006846FFF7ADFD0121880700F068F805B0E0
:100C100030BD0000000C014030B589B005460C46DF
:100C200001210220FFF7E0FD01210520FFF7ECFD87
:100C3000C020ADF8200018208DF8230003208DF887
:100C4000220008A91C48FFF791FCADF81850ADF838
:100C500014400020ADF81A00ADF8160005A9174899
:100C600000F02CF97020ADF804000120ADF806006A
:100C70000020ADF80C0001A9104800F065F808212B
:100C80000E4800F0ADF80020ADF80C0001A90B48AB
:100C900000F0B0F80821094800F0FEF801210748EB
:100CA00000F029F80121054800F00AF80121034865
:100CB00000F015F809B030BD000801400004004004
:100CC00021B1028842F08002028004E002884FF6DF
:100CD0007F731A4002807047CA430282704721B175
:100CE000028842F00102028004E002884FF6FE739F
:100CF0001A400280704731B1B0F8442042F40042FB
:100D0000A0F8442005E0B0F84420C2F30E02A0F899
:100D10004420704730B50246002000230024158A85
:100D200005EA0103958905EA010413B10CB101201C
:100D300000E0002030BD1AB183890B43838102E0BB
:100D400083898B438381704770B500240022002380
:100D5000058C4FF6FE7635400584028C8388048B23
:100D60004FF68F752C40B51E2C400D882C43751EF8
:100D70002A400D892A434D882A43144DA8420BD09E
:100D8000134DA84208D0134DA84205D0124DA842D9
:100D900002D0124DA84213D14FF6F7752A404D8963
:100DA0002A434FF6FB752A408D882A434FF6FF658C
:100DB0002B404FF6FF552B408D892B43CD892B437C
:100DC00083800483CD888586028470BD002C014019
:100DD000003401400040014000440140004801400F
:100DE0000A460021018B4FF6F77319401143018326
:100DF0007047000070B5002400220023058C4FF6D8
:100E0000EF7635400584028C8388048B48F6FF75A5
:100E10002C404FF6FF452C400D884FF6FF7606EA32
:100E200005252C434FF6DF752A400D8906EA051586
:100E30002A434D8806EA05152A43154DA84202D0DB
:100E4000144DA8421DD14FF67F752A404D894FF6AB
:100E5000FF7606EA05152A434FF6BF752A408D88AE
:100E600006EA05152A434FF6FF352B404FF2FF7572
:100E70002B408D8906EA85052B43CD8906EA850539
:100E80002B4383800483CD880587028470BD0000D6
:100E9000002C0140003401400A460021018B4FF232
:100EA000FF7319404FF6FF7303EA022319430183CE
:100EB00070478186704701877047000000220288D2
:100EC0001D4B98420ED01D4B98420BD0B0F1804F75
:100ED00008D01B4B984205D01A4B984202D01A4BAF
:100EE000984204D14FF68F731A404B881A43174B20
:100EF000984207D0164B984204D04FF6FF431A4051
:100F0000CB881A4302808B8883850B8803850A4B24
:100F100098420BD0094B984208D00E4B984205D00E
:100F20000D4B984202D00D4B984201D10B7A0386AB
:100F30000123838270470000002C014000340140EF
:100F40000004004000080040000C00400010004079
:100F500000140040004001400044014000480140AE
:100F600010B540F225511D4800F04AF810B31B4857
:100F700000F002F9C4B21A48008800F40040C8B971
:100F80001748008800F4804060B10A2C03D000208C
:100F90001349088020E01248008840F400401049BE
:100FA000088019E00D2C06D10D48008840F48040DF
:100FB0000B49088010E00A480088C0F30D00094979
:100FC0000C5407480088401C0549088008460088E2
:100FD000C72801DD0020088010BD00000038014056
:100FE0003C0000204000002021B1828942F40052E0
:100FF000828104E082894DF6FF731A408281704736
:1010000070B50246002400230025002040F66A1631
:10101000B14200D100BFC1F3421501F01F03012608
:1010200006FA03F3012D02D19689334006E0022D22
:1010300002D1168A334001E0968A33400C12012611
:1010400006FA04F41688344013B10CB1012000E014
:10105000002070BDF0B503460024002600250020C6
:1010600040F66A17B94200D100BF1846C1F34214D6
:1010700001F01F06012707FA06F5012C01D10C30FB
:1010800004E0022C01D1103000E014301AB10768DE
:101090002F43076002E00768AF430760F0BD000020
:1010A0002DE9F04786B005460E460024A24600BF53
:1010B000A1460027B08900B100BF2F462C8A4CF60C
:1010C000FF700440F08804432C82AC894EF6F31084
:1010D0000440B08831890843718908430443AC81D6
:1010E000AC8A4FF6FF400440B0890443AC8201A8AB
:1010F000FFF79AFB1F48874202D1DDF810A001E0FC
:10110000DDF80CA0A88900F4004040B10AEBCA0049
:1011100000EB0A1031684900B0FBF1F807E00AEB78
:10112000CA0000EB0A1031688900B0FBF1F86420B6
:10113000B8FBF0F004012009642101FB1089A889A3
:1011400000F4004040B1322000EBC900B0FBF1F0E8
:1011500000F00700044308E0322000EB091064218E
:10116000B0FBF1F000F00F0004432C8106B0BDE8A5
:10117000F08700000038014001468888C0F308006D
:10118000704700BFFEE7014600BF704710B5174823
:101190008078772829D11548C078612813D0642831
:1011A00019D0732809D077281DD14FF4FA70FFF7B2
:1011B000C5FB0FA0FFF70AF816E0FFF757FC0EA0DB
:1011C000FFF704F810E04FF4FA70FFF785FA0CA06F
:1011D000FEF7FCFF08E04FF4FA70FFF78FFB0AA060
:1011E000FEF7F4FF00E000BF00BF10BD400000208C
:1011F000446D72770D0A0000446D72730D0A000091
:10120000446D72610D0A0000446D72640D0A0000A5
:1012100010B56FF00400FFF743FC0A4800680A4964
:10122000B0FBF1F0094908700846007800EB400176
:10123000C1EBC0104FF6FF7101EAC00004490880FD
:1012400010BD00000000002000127A0034000020D1
:10125000360000200146114A12884A434FF0E0232D
:101260005A6100229A611A46126942F001021A611B
:1012700000BF4FF0E022106900F001021AB100F443
:101280008032002AF5D04FF0E022126922F00102EC
:101290004FF0E0231A6100229A6170473600002067
:1012A00000BF054A128802F04002002AF9D0C2B2FB
:1012B000014B1B1D1A80704700380140FFF7F0F901
:1012C000FFF7A6FFFFF745FA4FF4165000F058F865
:1012D00047210920FFF756FC472140F2E730FFF78E
:1012E0009BFCFFF771F8FFF719FA4FF47A71184871
:1012F000FFF7DFFD4FF47A711548FFF7DCFD322070
:1013000000F02CF84FF4FA70FFF7A4FF962000F0DD
:1013100025F81BE00F48008800F40040B0B100BF82
:101320000D48007855280ED10B484078682804D025
:101330006D2803D0742804D104E003E0FFF726FFF2
:1013400000E000BF00BF002002490880E2E7000083
:10135000000400403C00002040000020312801D261
:10136000312002E0F92800D9F92003490860002162
:10137000024A11607047000018000020140000208D
:1013800010B586B00446012144F20500FFF73CFA8F
:101390004FF40070ADF8140003208DF816001820EB
:1013A0008DF8170005A91C48FFF7E0F84FF480609E
:1013B000ADF8140004208DF8170005A91648FFF7B2
:1013C000D5F825208DF8000003208DF801008DF858
:1013D000020001208DF803006846FFF7C1F901946F
:1013E0000020ADF80800ADF80A00ADF80C00ADF82B
:1013F00010000C20ADF80E0001A90848FFF750FEC0
:10140000012240F225510548FFF724FE012103483F
:10141000FFF7EAFD06B010BD0008014000380140AA
:1014200040140008000000204000000028010008CF
:101430008014000840000020280700004401000834
:1014400000A24A04000000000000000001020304A2
:10145000060708090000000031000000000000003D
:101460000000000102030401020304060708090248
:10147000040608000000000000000000000000005A
:04000005080000ED02
:00000001FF
